S01900005A4B575F4D61676E6574697369657265722E7372656361
S11300000EC08DC01CC01BC01AC019C018C017C0B8
S113001068C015C048C013C012C011C010C011245C
S11300201FBECFE5D2E0DEBFCDBF20E0A0E6B0E04A
S113003001C01D92A436B207E1F79ED0A9C0E0CF5B
S113004083B7816083BF83B78D7F83BF83B78460A9
S113005083BF89B7806189BF8CE989BD08953E98C3
S11300603F983D9A389839983A983B98379A339AFA
S11300703098319A329A369A089585B7816085BF4F
S113008085B7826085BF8BB780648BBF0895C49A9F
S11300902FEF83ED90E3215080409040E1F700C0C2
S11300A00000C49808951F920F920FB60F92112466
S11300B08F939F9312BE809161008F5F8093610044
S11300C0853040F088B391E0892788BB10926100A5
S11300D0909360009F918F910F900FBE0F901F908F
S11300E018951F920F920FB60F9211248F939F931E
S11300F098B382E0892788BB84B18093630085B17B
S1130100809362008A3010F0C39A01C0C398369A73
S11301109F918F910F900FBE0F901F9018951F9273
S11301200F920FB60F9211242F933F934F935F9327
S11301306F937F938F939F93AF93BF93EF93FF93AB
S1130140809162008A3038F080916000813019F427
S11301509EDF10926000FF91EF91BF91AF919F914C
S11301608F917F916F915F914F913F912F910F905C
S11301700FBE0F901F90189580E886BD16BCB89AE4
S1130180B99ABB9AC3985CDF6ADF77DF7894FFCFB4
S1070190F894FFCF0D
S9030000FC
