:100000000EC071C01CC01BC01AC019C018C017C0D8
:1000100052C015C036C013C012C011C010C0112488
:100020001FBECFE5D2E0DEBFCDBF20E0A0E6B0E04E
:1000300001C01D92A436B207E1F77CD088C0E0CFA2
:100040003E983F983D9A389839983A983B98379A15
:10005000339A3098319A329A369A089585B78E7FBE
:1000600085BF85B7826085BF8BB780648BBF0895DD
:10007000C19A8FE39CE90197F1F700C00000C19895
:1000800008951F920F920FB60F9211248F9312BEF4
:10009000809161008F5F853018F48093610005C006
:1000A0001092610081E0809360008F910F900FBEED
:1000B0000F901F9018951F920F920FB60F92112458
:1000C0008F9384B18093630085B180936200843BF9
:1000D00010F0C49A01C0C498369A8F910F900FBE49
:1000E0000F901F9018951F920F920FB60F92112428
:1000F0002F933F934F935F936F937F938F939F9330
:10010000AF93BF93EF93FF9380916200843B08F01D
:10011000AFDFFF91EF91BF91AF919F918F917F9151
:100120006F915F914F913F912F910F900FBE0F9064
:100130001F90189580E886BD16BCB99ABD98BA98EC
:10014000C29ABC9AC4987CDF89DF7894FFCFF89478
:02015000FFCFDF
:00000001FF
