S01B00005A4B575F4D61676E657469736965725F6E65752E737265638F
S11300000EC058C01CC01BC01AC019C018C017C0ED
S113001083C015C0A0C013C012C011C010C01124E9
S11300201FBECFE5D2E0DEBFCDBF20E0A0E6B0E04A
S113003001C01D92A436B207E1F7A6D0D7C0E0CF25
S113004083B78E7F83BF83B78D7F83BF83B784607D
S113005083BF89B7806189BF8FEF89BD08953E98BA
S11300603F983D9A389839983A983B98379A339AFA
S11300703098319A329A369A089585B78E7F85BF23
S113008085B78D7F85BF8BB780648BBF089585B797
S1130090877E806185BF0895C19A88E68A95F1F7C5
S11300A00000C1980895C49A84E89EE10197F1F78D
S11300B0000008951F920F920FB60F9211242F93F0
S11300C03F934F935F936F937F938F939F93AF93DC
S11300D0BF93EF93FF93809161008A3058F0809131
S11300E062008E3140F010926000D6DFDCDF1092A7
S11300F0610001C0C498FF91EF91BF91AF919F91AE
S11301008F917F916F915F914F913F912F910F90BC
S11301100FBE0F901F9018951F920F920FB60F925B
S113012011248F939F9384B18093630085B180934E
S11301306200809162008E3128F098B380E18927B3
S113014088BB01C0C498369A9F918F910F900FBEBF
S11301500F901F9018951F920F920FB60F921124B3
S11301608F9312BE809160008F5F809360008091B6
S11301706000883C18F088EC809360008F910F90A9
S11301800FBE0F901F90189580E886BD88E086BD4D
S1130190B89AB99ABD98BA98C29ABC9AC4986DDFB5
S11301A05EDF4EDF74DF789485B7806285BF889503
S11301B085B78F7D85BF98EC809161008F5F8093B8
S11301C0610080916100883C10F0909361008091FF
S11301D06000833088F3C49885B7806285BF8895B2
S11301E085B78F7D85BF10926000E6CFF894FFCF6E
S9030000FC
